{
  "contractName": "Donations",
  "abi": [
    {
      "constant": true,
      "inputs": [],
      "name": "donationCount",
      "outputs": [
        {
          "name": "",
          "type": "uint256"
        }
      ],
      "payable": false,
      "stateMutability": "view",
      "type": "function",
      "signature": "0x2abfab4d"
    },
    {
      "constant": true,
      "inputs": [
        {
          "name": "",
          "type": "uint256"
        }
      ],
      "name": "donations",
      "outputs": [
        {
          "name": "id",
          "type": "uint256"
        },
        {
          "name": "amt",
          "type": "uint256"
        },
        {
          "name": "comment",
          "type": "string"
        },
        {
          "name": "completed",
          "type": "bool"
        }
      ],
      "payable": false,
      "stateMutability": "view",
      "type": "function",
      "signature": "0xf8626af8"
    },
    {
      "inputs": [],
      "payable": false,
      "stateMutability": "nonpayable",
      "type": "constructor",
      "signature": "constructor"
    },
    {
      "anonymous": false,
      "inputs": [
        {
          "indexed": false,
          "name": "id",
          "type": "uint256"
        },
        {
          "indexed": false,
          "name": "amt",
          "type": "uint256"
        },
        {
          "indexed": false,
          "name": "comment",
          "type": "string"
        },
        {
          "indexed": false,
          "name": "completed",
          "type": "bool"
        }
      ],
      "name": "DonationMade",
      "type": "event",
      "signature": "0xa1360363a380198c80ddfca687f67800725c8cef1020a559ff141f3033b5ae35"
    },
    {
      "anonymous": false,
      "inputs": [
        {
          "indexed": false,
          "name": "id",
          "type": "uint256"
        },
        {
          "indexed": false,
          "name": "completed",
          "type": "bool"
        }
      ],
      "name": "DonationCompleted",
      "type": "event",
      "signature": "0x85d88d323a7a355c7d6fad584a06936bee689dedce1674ca635c6ca1d71fe2fe"
    },
    {
      "constant": false,
      "inputs": [
        {
          "name": "t_amt",
          "type": "uint256"
        },
        {
          "name": "_content",
          "type": "string"
        }
      ],
      "name": "makeDonation",
      "outputs": [],
      "payable": false,
      "stateMutability": "nonpayable",
      "type": "function",
      "signature": "0xaec8d859"
    },
    {
      "constant": false,
      "inputs": [
        {
          "name": "_id",
          "type": "uint256"
        }
      ],
      "name": "toggleCompleted",
      "outputs": [],
      "payable": false,
      "stateMutability": "nonpayable",
      "type": "function",
      "signature": "0x455f5024"
    }
  ],
  "bytecode": "0x60806040526000805534801561001457600080fd5b50604080516020810190915260008082526100379164010000000061003c810204565b610214565b60008054600190810180835560408051608081018252828152602080820188815282840188815260608401889052948752858252929095208151815591519382019390935590518051929391926100999260028501920190610179565b5060608201518160030160006101000a81548160ff0219169083151502179055509050507fa1360363a380198c80ddfca687f67800725c8cef1020a559ff141f3033b5ae3560005483836000604051808581526020018481526020018060200183151515158152602001828103825284818151815260200191508051906020019080838360005b83811015610138578181015183820152602001610120565b50505050905090810190601f1680156101655780820380516001836020036101000a031916815260200191505b509550505050505060405180910390a15050565b828054600181600116156101000203166002900490600052602060002090601f016020900481019282601f106101ba57805160ff19168380011785556101e7565b828001600101855582156101e7579182015b828111156101e75782518255916020019190600101906101cc565b506101f39291506101f7565b5090565b61021191905b808211156101f357600081556001016101fd565b90565b6106a3806102236000396000f3fe6080604052600436106100615763ffffffff7c01000000000000000000000000000000000000000000000000000000006000350416632abfab4d8114610066578063455f50241461008d578063aec8d859146100b9578063f8626af814610173575b600080fd5b34801561007257600080fd5b5061007b61022e565b60408051918252519081900360200190f35b34801561009957600080fd5b506100b7600480360360208110156100b057600080fd5b5035610234565b005b3480156100c557600080fd5b506100b7600480360360408110156100dc57600080fd5b813591908101906040810160208201356401000000008111156100fe57600080fd5b82018360208201111561011057600080fd5b8035906020019184600183028401116401000000008311171561013257600080fd5b91908080601f0160208091040260200160405190810160405280939291908181526020018383808284376000920191909152509295506103a9945050505050565b34801561017f57600080fd5b5061019d6004803603602081101561019657600080fd5b50356104e6565b604051808581526020018481526020018060200183151515158152602001828103825284818151815260200191508051906020019080838360005b838110156101f05781810151838201526020016101d8565b50505050905090810190601f16801561021d5780820380516001836020036101000a031916815260200191505b509550505050505060405180910390f35b60005481565b61023c6105b1565b60008281526001602081815260409283902083516080810185528154815281840154818401526002808301805487519681161561010002600019011691909104601f8101859004850286018501875280865291959294928601939091908301828280156102ea5780601f106102bf576101008083540402835291602001916102ea565b820191906000526020600020905b8154815290600101906020018083116102cd57829003601f168201915b50505091835250506003919091015460ff161515602091820152606082018051159052600084815260018083526040918290208451815584840151918101919091559083015180519394508493919261034b926002850192909101906105dc565b50606091820151600391909101805460ff191691151591909117905581015160408051848152911515602083015280517f85d88d323a7a355c7d6fad584a06936bee689dedce1674ca635c6ca1d71fe2fe9281900390910190a15050565b600080546001908101808355604080516080810182528281526020808201888152828401888152606084018890529487528582529290952081518155915193820193909355905180519293919261040692600285019201906105dc565b5060608201518160030160006101000a81548160ff0219169083151502179055509050507fa1360363a380198c80ddfca687f67800725c8cef1020a559ff141f3033b5ae3560005483836000604051808581526020018481526020018060200183151515158152602001828103825284818151815260200191508051906020019080838360005b838110156104a557818101518382015260200161048d565b50505050905090810190601f1680156104d25780820380516001836020036101000a031916815260200191505b509550505050505060405180910390a15050565b6001602052806000526040600020600091509050806000015490806001015490806002018054600181600116156101000203166002900480601f01602080910402602001604051908101604052809291908181526020018280546001816001161561010002031660029004801561059e5780601f106105735761010080835404028352916020019161059e565b820191906000526020600020905b81548152906001019060200180831161058157829003601f168201915b5050506003909301549192505060ff1684565b6080604051908101604052806000815260200160008152602001606081526020016000151581525090565b828054600181600116156101000203166002900490600052602060002090601f016020900481019282601f1061061d57805160ff191683800117855561064a565b8280016001018555821561064a579182015b8281111561064a57825182559160200191906001019061062f565b5061065692915061065a565b5090565b61067491905b808211156106565760008155600101610660565b9056fea165627a7a72305820ed3a043bb1cafd535776b65196325c01b36d18a14c79aed21ca48a06f422c7350029",
  "source": "pragma solidity ^0.5.0;\r\n\r\ncontract Donations{\r\n    uint public donationCount=0;\r\n\r\n    \r\n    struct Donation{\r\n        uint id;\r\n        uint amt;\r\n        string comment;\r\n        bool completed;\r\n    }\r\n\r\n    mapping(uint=>Donation) public donations;\r\n\r\nevent DonationMade(\r\n    uint id,\r\n    uint amt,\r\n    string comment,\r\n    bool completed\r\n);\r\n    event DonationCompleted(uint id,\r\n    bool completed);\r\n\r\n    constructor() public {\r\n        makeDonation(0,\"\");\r\n    }\r\n    function makeDonation(uint t_amt,string memory _content) public {\r\n        donationCount ++;\r\n        donations[donationCount]=Donation(donationCount,t_amt,_content,false);\r\n        emit DonationMade(donationCount,t_amt,_content,false);\r\n    }\r\n    function toggleCompleted(uint _id) public {\r\n        Donation memory _donation=donations[_id];\r\n        _donation.completed=!_donation.completed;\r\n        donations[_id]=_donation;\r\n        emit DonationCompleted(_id,_donation.completed);\r\n    }\r\n\r\n}",
  "sourcePath": "F:/BlockChainApp/Paaradarshaka_hastha/contracts/Donations.sol",
  "compiler": {
    "name": "solc",
    "version": "0.5.0+commit.1d4f565a.Emscripten.clang"
  },
  "schemaVersion": "3.0.1",
  "updatedAt": "2022-09-24T12:51:17.410Z",
  "devdoc": {
    "methods": {}
  },
  "userdoc": {
    "methods": {}
  }
}