{
  "contractName": "Donations",
  "abi": [
    {
      "constant": true,
      "inputs": [],
      "name": "donationCount",
      "outputs": [
        {
          "name": "",
          "type": "uint256"
        }
      ],
      "payable": false,
      "stateMutability": "view",
      "type": "function",
      "signature": "0x2abfab4d"
    },
    {
      "constant": true,
      "inputs": [
        {
          "name": "",
          "type": "uint256"
        }
      ],
      "name": "donations",
      "outputs": [
        {
          "name": "id",
          "type": "uint256"
        },
        {
          "name": "amt",
          "type": "uint256"
        },
        {
          "name": "comment",
          "type": "string"
        },
        {
          "name": "completed",
          "type": "bool"
        },
        {
          "name": "spent",
          "type": "bool"
        }
      ],
      "payable": false,
      "stateMutability": "view",
      "type": "function",
      "signature": "0xf8626af8"
    },
    {
      "inputs": [],
      "payable": false,
      "stateMutability": "nonpayable",
      "type": "constructor",
      "signature": "constructor"
    },
    {
      "anonymous": false,
      "inputs": [
        {
          "indexed": false,
          "name": "",
          "type": "uint256"
        },
        {
          "indexed": false,
          "name": "",
          "type": "bool"
        }
      ],
      "name": "donationSpent",
      "type": "event",
      "signature": "0x64627c44883178d24e540235355fa4c5e9b7462066dd93cb908de20907b58204"
    },
    {
      "anonymous": false,
      "inputs": [
        {
          "indexed": false,
          "name": "id",
          "type": "uint256"
        },
        {
          "indexed": false,
          "name": "amt",
          "type": "uint256"
        },
        {
          "indexed": false,
          "name": "comment",
          "type": "string"
        },
        {
          "indexed": false,
          "name": "completed",
          "type": "bool"
        },
        {
          "indexed": false,
          "name": "spent",
          "type": "bool"
        }
      ],
      "name": "DonationMade",
      "type": "event",
      "signature": "0x1d75a8db07ca216051a47253ddd355109d0adb22a7cb20c5cbfc9ecd68ec0c3e"
    },
    {
      "anonymous": false,
      "inputs": [
        {
          "indexed": false,
          "name": "id",
          "type": "uint256"
        },
        {
          "indexed": false,
          "name": "completed",
          "type": "bool"
        }
      ],
      "name": "DonationCompleted",
      "type": "event",
      "signature": "0x85d88d323a7a355c7d6fad584a06936bee689dedce1674ca635c6ca1d71fe2fe"
    },
    {
      "constant": false,
      "inputs": [
        {
          "name": "id",
          "type": "uint256"
        }
      ],
      "name": "spendDonation",
      "outputs": [],
      "payable": false,
      "stateMutability": "nonpayable",
      "type": "function",
      "signature": "0x76642099"
    },
    {
      "constant": false,
      "inputs": [
        {
          "name": "t_amt",
          "type": "uint256"
        },
        {
          "name": "_content",
          "type": "string"
        }
      ],
      "name": "makeDonation",
      "outputs": [],
      "payable": false,
      "stateMutability": "nonpayable",
      "type": "function",
      "signature": "0xaec8d859"
    },
    {
      "constant": false,
      "inputs": [
        {
          "name": "_id",
          "type": "uint256"
        }
      ],
      "name": "toggleCompleted",
      "outputs": [],
      "payable": false,
      "stateMutability": "nonpayable",
      "type": "function",
      "signature": "0x455f5024"
    }
  ],
  "bytecode": "0x60806040526000805534801561001457600080fd5b50604080516020810190915260008082526100379164010000000061003c810204565b61023a565b6000805460019081018083556040805160a08101825282815260208082018881528284018881526060840188905260808401889052948752858252929095208151815591519382019390935590518051929391926100a0926002850192019061019f565b506060828101516003909201805460809485015115156101000261ff001994151560ff199092169190911793909316929092179091556000805460408051828152602080820189905294810184905294850183905260a090850181815286519186019190915285517f1d75a8db07ca216051a47253ddd355109d0adb22a7cb20c5cbfc9ecd68ec0c3e95929488948894909384939192909160c0840191870190808383885b8381101561015d578181015183820152602001610145565b50505050905090810190601f16801561018a5780820380516001836020036101000a031916815260200191505b50965050505050505060405180910390a15050565b828054600181600116156101000203166002900490600052602060002090601f016020900481019282601f106101e057805160ff191683800117855561020d565b8280016001018555821561020d579182015b8281111561020d5782518255916020019190600101906101f2565b5061021992915061021d565b5090565b61023791905b808211156102195760008155600101610223565b90565b61086c806102496000396000f3fe60806040526004361061006c5763ffffffff7c01000000000000000000000000000000000000000000000000000000006000350416632abfab4d8114610071578063455f50241461009857806376642099146100c4578063aec8d859146100ee578063f8626af8146101a8575b600080fd5b34801561007d57600080fd5b5061008661026e565b60408051918252519081900360200190f35b3480156100a457600080fd5b506100c2600480360360208110156100bb57600080fd5b5035610274565b005b3480156100d057600080fd5b506100c2600480360360208110156100e757600080fd5b5035610410565b3480156100fa57600080fd5b506100c26004803603604081101561011157600080fd5b8135919081019060408101602082013564010000000081111561013357600080fd5b82018360208201111561014557600080fd5b8035906020019184600183028401116401000000008311171561016757600080fd5b91908080601f01602080910402602001604051908101604052809392919081815260200183838082843760009201919091525092955061053a945050505050565b3480156101b457600080fd5b506101d2600480360360208110156101cb57600080fd5b503561069d565b60405180868152602001858152602001806020018415151515815260200183151515158152602001828103825285818151815260200191508051906020019080838360005b8381101561022f578181015183820152602001610217565b50505050905090810190601f16801561025c5780820380516001836020036101000a031916815260200191505b50965050505050505060405180910390f35b60005481565b61027c610771565b600082815260016020818152604092839020835160a0810185528154815281840154818401526002808301805487519681161561010002600019011691909104601f81018590048502860185018752808652919592949286019390919083018282801561032a5780601f106102ff5761010080835404028352916020019161032a565b820191906000526020600020905b81548152906001019060200180831161030d57829003601f168201915b50505091835250506003919091015460ff80821615156020808501919091526101009092041615156040928301526060830180511590526000858152600180835290839020845181558483015191810191909155918301518051939450849361039992600285019201906107a5565b506060828101516003909201805460809094015115156101000261ff001993151560ff19909516949094179290921692909217905581015160408051848152911515602083015280517f85d88d323a7a355c7d6fad584a06936bee689dedce1674ca635c6ca1d71fe2fe9281900390910190a15050565b610418610771565b600082815260016020818152604092839020835160a0810185528154815281840154818401526002808301805487519681161561010002600019011691909104601f8101859004850286018501875280865291959294928601939091908301828280156104c65780601f1061049b576101008083540402835291602001916104c6565b820191906000526020600020905b8154815290600101906020018083116104a957829003601f168201915b50505091835250506003919091015460ff808216151560208085019190915261010090920416151560409283015260016080840181905282518681529182015281519293507f64627c44883178d24e540235355fa4c5e9b7462066dd93cb908de20907b58204929081900390910190a15050565b6000805460019081018083556040805160a081018252828152602080820188815282840188815260608401889052608084018890529487528582529290952081518155915193820193909355905180519293919261059e92600285019201906107a5565b506060828101516003909201805460809485015115156101000261ff001994151560ff199092169190911793909316929092179091556000805460408051828152602080820189905294810184905294850183905260a090850181815286519186019190915285517f1d75a8db07ca216051a47253ddd355109d0adb22a7cb20c5cbfc9ecd68ec0c3e95929488948894909384939192909160c0840191870190808383885b8381101561065b578181015183820152602001610643565b50505050905090810190601f1680156106885780820380516001836020036101000a031916815260200191505b50965050505050505060405180910390a15050565b6001602052806000526040600020600091509050806000015490806001015490806002018054600181600116156101000203166002900480601f0160208091040260200160405190810160405280929190818152602001828054600181600116156101000203166002900480156107555780601f1061072a57610100808354040283529160200191610755565b820191906000526020600020905b81548152906001019060200180831161073857829003601f168201915b5050506003909301549192505060ff8082169161010090041685565b60a0604051908101604052806000815260200160008152602001606081526020016000151581526020016000151581525090565b828054600181600116156101000203166002900490600052602060002090601f016020900481019282601f106107e657805160ff1916838001178555610813565b82800160010185558215610813579182015b828111156108135782518255916020019190600101906107f8565b5061081f929150610823565b5090565b61083d91905b8082111561081f5760008155600101610829565b9056fea165627a7a72305820980b4cc210e65c49407320ad876242868481023c107f230c2531bf8629f9628c0029",
  "source": "// SPDX-License-Identifier: MIT\r\npragma solidity ^0.5.0;\r\n\r\ncontract Donations{\r\n    uint public donationCount=0;\r\n\r\n    \r\n    struct Donation{\r\n        uint id;\r\n        uint amt;\r\n        string comment;\r\n        bool completed;\r\n        bool spent;\r\n    }\r\n\r\n    mapping(uint=>Donation) public donations;\r\n\r\nevent donationSpent(uint, bool);\r\nfunction spendDonation(uint id) public {\r\n    Donation memory _donation  = donations[id];\r\n\r\n_donation.spent=true;\r\nemit donationSpent (id,_donation.spent );\r\n}\r\n// function getDonationObject  (uint i) public {\r\n//     return i*i;\r\n// }\r\n\r\n\r\n\r\nevent DonationMade(\r\n    uint id,\r\n    uint amt,\r\n    string comment,\r\n    bool completed,\r\n    bool spent\r\n);\r\n    event DonationCompleted(uint id,\r\n    bool completed);\r\n\r\n    constructor() public {\r\n        makeDonation(0,\"\");\r\n    }\r\n    function makeDonation(uint t_amt,string memory _content) public {\r\n        donationCount ++;\r\n        donations[donationCount]=Donation(donationCount,t_amt,_content,false,false);\r\n        emit DonationMade(donationCount,t_amt,_content,false,false);\r\n    }\r\n    function toggleCompleted(uint _id) public {\r\n        Donation memory _donation=donations[_id];\r\n        _donation.completed=!_donation.completed;\r\n        donations[_id]=_donation;\r\n        emit DonationCompleted(_id,_donation.completed);\r\n    }\r\n\r\n}",
  "sourcePath": "C:/Users/Srujan/Documents/Paaradarshaka_hastha/contracts/Donations.sol",
  "compiler": {
    "name": "solc",
    "version": "0.5.0+commit.1d4f565a.Emscripten.clang"
  },
  "schemaVersion": "3.0.1",
  "updatedAt": "2022-09-25T04:57:47.076Z",
  "devdoc": {
    "methods": {}
  },
  "userdoc": {
    "methods": {}
  }
}