{
  "contractName": "Expenditures",
  "abi": [
    {
      "constant": true,
      "inputs": [],
      "name": "totalitems",
      "outputs": [
        {
          "name": "",
          "type": "uint256"
        }
      ],
      "payable": false,
      "stateMutability": "view",
      "type": "function"
    },
    {
      "constant": true,
      "inputs": [
        {
          "name": "",
          "type": "uint256"
        }
      ],
      "name": "donations",
      "outputs": [
        {
          "name": "",
          "type": "address"
        }
      ],
      "payable": false,
      "stateMutability": "view",
      "type": "function"
    }
  ],
  "bytecode": "0x608060405234801561001057600080fd5b5061011a806100206000396000f3fe60806040526004361060485763ffffffff7c0100000000000000000000000000000000000000000000000000000000600035041663f0b707918114604d578063f8626af8146071575b600080fd5b348015605857600080fd5b50605f60c0565b60408051918252519081900360200190f35b348015607c57600080fd5b50609760048036036020811015609157600080fd5b503560c6565b6040805173ffffffffffffffffffffffffffffffffffffffff9092168252519081900360200190f35b60005481565b60016020526000908152604090205473ffffffffffffffffffffffffffffffffffffffff168156fea165627a7a72305820113d333a285db920ca15797cc7d0dd58267301bc8a701b5686eb83138f1446930029",
  "source": "pragma solidity >=0.5.0;\r\n\r\ncontract Expenditures{\r\n\r\nuint public totalitems;\r\n\r\n  struct expenditures{\r\n        uint amt;\r\n        string month;\r\n        string donation_id;\r\n        bool spent;\r\n    }\r\n\r\n    mapping(uint=>Expenditures) public donations;\r\n\r\n\r\n}\r\n",
  "sourcePath": "C:/Users/Srujan/Documents/Paaradarshaka_hastha/contracts/Expenditures.sol",
  "compiler": {
    "name": "solc",
    "version": "0.5.0+commit.1d4f565a.Emscripten.clang"
  },
  "schemaVersion": "3.0.1",
  "updatedAt": "2022-09-24T19:01:29.635Z",
  "devdoc": {
    "methods": {}
  },
  "userdoc": {
    "methods": {}
  }
}