{
  "contractName": "Expenditures",
  "abi": [
    {
      "constant": true,
      "inputs": [],
      "name": "totalitems",
      "outputs": [
        {
          "name": "",
          "type": "uint256"
        }
      ],
      "payable": false,
      "stateMutability": "view",
      "type": "function"
    },
    {
      "constant": true,
      "inputs": [
        {
          "name": "",
          "type": "uint256"
        }
      ],
      "name": "donations",
      "outputs": [
        {
          "name": "amt",
          "type": "uint256"
        },
        {
          "name": "month",
          "type": "string"
        },
        {
          "name": "donation_id",
          "type": "string"
        },
        {
          "name": "spent",
          "type": "bool"
        }
      ],
      "payable": false,
      "stateMutability": "view",
      "type": "function"
    }
  ],
  "bytecode": "0x608060405234801561001057600080fd5b50610304806100206000396000f3fe60806040526004361061004b5763ffffffff7c0100000000000000000000000000000000000000000000000000000000600035041663f0b707918114610050578063f8626af814610077575b600080fd5b34801561005c57600080fd5b50610065610191565b60408051918252519081900360200190f35b34801561008357600080fd5b506100a16004803603602081101561009a57600080fd5b5035610197565b60405180858152602001806020018060200184151515158152602001838103835286818151815260200191508051906020019080838360005b838110156100f25781810151838201526020016100da565b50505050905090810190601f16801561011f5780820380516001836020036101000a031916815260200191505b50838103825285518152855160209182019187019080838360005b8381101561015257818101518382015260200161013a565b50505050905090810190601f16801561017f5780820380516001836020036101000a031916815260200191505b50965050505050505060405180910390f35b60005481565b600160208181526000928352604092839020805481840180548651600296821615610100026000190190911695909504601f810185900485028601850190965285855290949193929091908301828280156102335780601f1061020857610100808354040283529160200191610233565b820191906000526020600020905b81548152906001019060200180831161021657829003601f168201915b50505060028085018054604080516020601f60001961010060018716150201909416959095049283018590048502810185019091528181529596959450909250908301828280156102c55780601f1061029a576101008083540402835291602001916102c5565b820191906000526020600020905b8154815290600101906020018083116102a857829003601f168201915b5050506003909301549192505060ff168456fea165627a7a723058208dceac00669eb7db663e7fa738e2d698abfc73fb4ba609fe8207a4a62b2a642f0029",
  "source": "pragma solidity ^0.5.0;\r\n\r\ncontract Expenditures{\r\n\r\nuint public totalitems;\r\n\r\n  struct Expenditures{\r\n        uint amt;\r\n        string month;\r\n        string donation_id;\r\n        bool spent;\r\n    }\r\n\r\n    mapping(uint=>Expenditures) public donations;\r\n\r\n\r\n}\r\n",
  "sourcePath": "C:/Users/Srujan/Documents/Paaradarshaka_hastha/contracts/Expenditures.sol",
  "compiler": {
    "name": "solc",
    "version": "0.5.0+commit.1d4f565a.Emscripten.clang"
  },
  "schemaVersion": "3.0.1",
  "updatedAt": "2022-09-24T14:38:42.386Z",
  "devdoc": {
    "methods": {}
  },
  "userdoc": {
    "methods": {}
  }
}