{
  "contractName": "retrieve",
  "abi": [
    {
      "constant": true,
      "inputs": [
        {
          "name": "",
          "type": "uint256"
        }
      ],
      "name": "donations",
      "outputs": [
        {
          "name": "id",
          "type": "uint256"
        },
        {
          "name": "amt",
          "type": "uint256"
        },
        {
          "name": "comment",
          "type": "string"
        },
        {
          "name": "completed",
          "type": "bool"
        },
        {
          "name": "spent",
          "type": "bool"
        }
      ],
      "payable": false,
      "stateMutability": "view",
      "type": "function",
      "signature": "0xf8626af8"
    },
    {
      "constant": false,
      "inputs": [
        {
          "name": "id",
          "type": "uint256"
        }
      ],
      "name": "spendDonation",
      "outputs": [],
      "payable": false,
      "stateMutability": "nonpayable",
      "type": "function",
      "signature": "0x76642099"
    }
  ],
  "bytecode": "0x608060405234801561001057600080fd5b50610248806100206000396000f3fe60806040526004361061004b5763ffffffff7c0100000000000000000000000000000000000000000000000000000000600035041663766420998114610050578063f8626af81461007c575b600080fd5b34801561005c57600080fd5b5061007a6004803603602081101561007357600080fd5b5035610142565b005b34801561008857600080fd5b506100a66004803603602081101561009f57600080fd5b5035610162565b60405180868152602001858152602001806020018415151515815260200183151515158152602001828103825285818151815260200191508051906020019080838360005b838110156101035781810151838201526020016100eb565b50505050905090810190601f1680156101305780820380516001836020036101000a031916815260200191505b50965050505050505060405180910390f35b6000908152602081905260409020600301805461ff001916610100179055565b6000602081815291815260409081902080546001808301546002808501805487519481161561010002600019011691909104601f810188900488028401880190965285835292959094919291908301828280156102005780601f106101d557610100808354040283529160200191610200565b820191906000526020600020905b8154815290600101906020018083116101e357829003601f168201915b5050506003909301549192505060ff808216916101009004168556fea165627a7a72305820546c32683d58a4bf04ddfe39613b9dd1a976748aab683165caf963a9775bc98c0029",
  "source": "// SPDX-License-Identifier: MIT\r\npragma solidity >=0.5.0;\r\n\r\ncontract retrieve{\r\n\r\nstruct Donation{\r\n    uint id;\r\n    uint amt;\r\n    string comment;\r\n    bool completed;\r\n    bool spent;\r\n}\r\n\r\nmapping(uint=>Donation) public donations;\r\n\r\n\r\nfunction spendDonation(uint id) public {\r\ndonations[id].spent=true;\r\n\r\n}\r\n\r\n}\r\n",
  "sourcePath": "C:/Users/Srujan/Documents/Paaradarshaka_hastha/contracts/retrieve.sol",
  "compiler": {
    "name": "solc",
    "version": "0.5.0+commit.1d4f565a.Emscripten.clang"
  },
  "schemaVersion": "3.0.1",
  "updatedAt": "2022-09-24T20:08:04.478Z",
  "devdoc": {
    "methods": {}
  },
  "userdoc": {
    "methods": {}
  }
}